{
  "_format": "hh3-artifact-1",
  "contractName": "bet",
  "sourceName": "contracts/bet.sol",
  "abi": [
    {
      "inputs": [
        {
          "components": [
            {
              "internalType": "address",
              "name": "maker",
              "type": "address"
            },
            {
              "internalType": "address",
              "name": "taker",
              "type": "address"
            },
            {
              "internalType": "address",
              "name": "judge",
              "type": "address"
            },
            {
              "internalType": "uint256",
              "name": "amount",
              "type": "uint256"
            },
            {
              "internalType": "string",
              "name": "description",
              "type": "string"
            },
            {
              "internalType": "uint256",
              "name": "deadline",
              "type": "uint256"
            },
            {
              "internalType": "enum bet.BetStatus",
              "name": "status",
              "type": "uint8"
            },
            {
              "internalType": "address",
              "name": "winner",
              "type": "address"
            }
          ],
          "internalType": "struct bet.Bet",
          "name": "_bet",
          "type": "tuple"
        }
      ],
      "stateMutability": "payable",
      "type": "constructor"
    },
    {
      "anonymous": false,
      "inputs": [
        {
          "indexed": true,
          "internalType": "address",
          "name": "taker",
          "type": "address"
        }
      ],
      "name": "BetAccepted",
      "type": "event"
    },
    {
      "anonymous": false,
      "inputs": [],
      "name": "BetCancelled",
      "type": "event"
    },
    {
      "anonymous": false,
      "inputs": [
        {
          "indexed": true,
          "internalType": "address",
          "name": "maker",
          "type": "address"
        },
        {
          "indexed": true,
          "internalType": "address",
          "name": "taker",
          "type": "address"
        },
        {
          "indexed": true,
          "internalType": "address",
          "name": "judge",
          "type": "address"
        },
        {
          "indexed": false,
          "internalType": "uint256",
          "name": "amount",
          "type": "uint256"
        },
        {
          "indexed": false,
          "internalType": "string",
          "name": "description",
          "type": "string"
        }
      ],
      "name": "BetCreated",
      "type": "event"
    },
    {
      "anonymous": false,
      "inputs": [
        {
          "indexed": true,
          "internalType": "address",
          "name": "winner",
          "type": "address"
        },
        {
          "indexed": false,
          "internalType": "uint256",
          "name": "totalAmount",
          "type": "uint256"
        }
      ],
      "name": "BetResolved",
      "type": "event"
    },
    {
      "inputs": [],
      "name": "acceptBet",
      "outputs": [],
      "stateMutability": "payable",
      "type": "function"
    },
    {
      "inputs": [],
      "name": "bet",
      "outputs": [
        {
          "internalType": "address",
          "name": "maker",
          "type": "address"
        },
        {
          "internalType": "address",
          "name": "taker",
          "type": "address"
        },
        {
          "internalType": "address",
          "name": "judge",
          "type": "address"
        },
        {
          "internalType": "uint256",
          "name": "amount",
          "type": "uint256"
        },
        {
          "internalType": "string",
          "name": "description",
          "type": "string"
        },
        {
          "internalType": "uint256",
          "name": "deadline",
          "type": "uint256"
        },
        {
          "internalType": "enum bet.BetStatus",
          "name": "status",
          "type": "uint8"
        },
        {
          "internalType": "address",
          "name": "winner",
          "type": "address"
        }
      ],
      "stateMutability": "view",
      "type": "function"
    },
    {
      "inputs": [],
      "name": "cancelBet",
      "outputs": [],
      "stateMutability": "nonpayable",
      "type": "function"
    },
    {
      "inputs": [],
      "name": "getBetDetails",
      "outputs": [
        {
          "internalType": "address",
          "name": "maker",
          "type": "address"
        },
        {
          "internalType": "address",
          "name": "taker",
          "type": "address"
        },
        {
          "internalType": "address",
          "name": "judge",
          "type": "address"
        },
        {
          "internalType": "uint256",
          "name": "amount",
          "type": "uint256"
        },
        {
          "internalType": "string",
          "name": "description",
          "type": "string"
        },
        {
          "internalType": "uint256",
          "name": "deadline",
          "type": "uint256"
        },
        {
          "internalType": "enum bet.BetStatus",
          "name": "status",
          "type": "uint8"
        },
        {
          "internalType": "address",
          "name": "winner",
          "type": "address"
        }
      ],
      "stateMutability": "view",
      "type": "function"
    },
    {
      "inputs": [],
      "name": "getContractBalance",
      "outputs": [
        {
          "internalType": "uint256",
          "name": "",
          "type": "uint256"
        }
      ],
      "stateMutability": "view",
      "type": "function"
    },
    {
      "inputs": [
        {
          "internalType": "address",
          "name": "_winner",
          "type": "address"
        }
      ],
      "name": "resolveBet",
      "outputs": [],
      "stateMutability": "nonpayable",
      "type": "function"
    },
    {
      "inputs": [
        {
          "internalType": "address",
          "name": "",
          "type": "address"
        }
      ],
      "name": "stakes",
      "outputs": [
        {
          "internalType": "uint256",
          "name": "",
          "type": "uint256"
        }
      ],
      "stateMutability": "view",
      "type": "function"
    }
  ],
  "bytecode": "0x6080604052604051610e60380380610e60833981016040819052610022916101fc565b3380825234606083018190525f60c0840181905260e0840181905280546001600160a01b0319908116909317815560208401516001805485166001600160a01b0392831617905560408501516002805490951691161790925560035560808201518291906004906100939082610368565b5060a0820151600582015560c082015160068201805460ff191660018360038111156100c1576100c16102d0565b021790555060e09190910151600690910180546001600160a01b0390921661010002610100600160a81b031990921691909117905550335f908152600760205260409020349055610422565b634e487b7160e01b5f52604160045260245ffd5b60405161010081016001600160401b03811182821017156101445761014461010d565b60405290565b80516001600160a01b0381168114610160575f5ffd5b919050565b5f82601f830112610174575f5ffd5b81516001600160401b0381111561018d5761018d61010d565b604051601f8201601f19908116603f011681016001600160401b03811182821017156101bb576101bb61010d565b6040528181528382016020018510156101d2575f5ffd5b8160208501602083015e5f918101602001919091529392505050565b805160048110610160575f5ffd5b5f6020828403121561020c575f5ffd5b81516001600160401b03811115610221575f5ffd5b82016101008185031215610233575f5ffd5b61023b610121565b6102448261014a565b81526102526020830161014a565b60208201526102636040830161014a565b60408201526060828101519082015260808201516001600160401b0381111561028a575f5ffd5b61029686828501610165565b60808301525060a082810151908201526102b260c083016101ee565b60c08201526102c360e0830161014a565b60e0820152949350505050565b634e487b7160e01b5f52602160045260245ffd5b600181811c908216806102f857607f821691505b60208210810361031657634e487b7160e01b5f52602260045260245ffd5b50919050565b601f82111561036357805f5260205f20601f840160051c810160208510156103415750805b601f840160051c820191505b81811015610360575f815560010161034d565b50505b505050565b81516001600160401b038111156103815761038161010d565b6103958161038f84546102e4565b8461031c565b6020601f8211600181146103c7575f83156103b05750848201515b5f19600385901b1c1916600184901b178455610360565b5f84815260208120601f198516915b828110156103f657878501518255602094850194600190920191016103d6565b508482101561041357868401515f19600387901b60f8161c191681555b50505050600190811b01905550565b610a318061042f5f395ff3fe60806040526004361061006e575f3560e01c80636f9fb98a1161004c5780636f9fb98a146100e65780637b6d79f1146100f85780638a2fd0291461010c578063d0b8a36114610120575f5ffd5b806311610c251461007257806316934fc4146100a357806330bfcb5f146100dc575b5f5ffd5b34801561007d575f5ffd5b5061008661013f565b60405161009a989796959493929190610907565b60405180910390f35b3480156100ae575f5ffd5b506100ce6100bd366004610996565b60076020525f908152604090205481565b60405190815260200161009a565b6100e461020e565b005b3480156100f1575f5ffd5b50476100ce565b348015610103575f5ffd5b506100e46103a1565b348015610117575f5ffd5b50610086610621565b34801561012b575f5ffd5b506100e461013a366004610996565b61070f565b5f8054600154600254600354600480546001600160a01b03958616969486169590931693919261016e906109c3565b80601f016020809104026020016040519081016040528092919081815260200182805461019a906109c3565b80156101e55780601f106101bc576101008083540402835291602001916101e5565b820191905f5260205f20905b8154815290600101906020018083116101c857829003601f168201915b50505050600583015460069093015491929160ff8116915061010090046001600160a01b031688565b6001546001600160a01b0316331461026d5760405162461bcd60e51b815260206004820181905260248201527f4f6e6c792064657369676e617465642074616b65722063616e2061636365707460448201526064015b60405180910390fd5b5f60065460ff166003811115610285576102856108d3565b146102c75760405162461bcd60e51b8152602060048201526012602482015271426574206973206e6f742070656e64696e6760701b6044820152606401610264565b600554421061030a5760405162461bcd60e51b815260206004820152600f60248201526e10995d081a185cc8195e1c1a5c9959608a1b6044820152606401610264565b600354341461035b5760405162461bcd60e51b815260206004820152601a60248201527f4d757374207374616b65207468652073616d6520616d6f756e740000000000006044820152606401610264565b335f818152600760205260408082203490556006805460ff19166001179055517fdd6dae32994530eefb2d3b21473a19ec9f41d294a4fd6353b9b16d2d2c674b969190a2565b5f60065460ff1660038111156103b9576103b96108d3565b14806103db5750600160065460ff1660038111156103d9576103d96108d3565b145b6104275760405162461bcd60e51b815260206004820152601a60248201527f43616e6e6f742063616e63656c207265736f6c766564206265740000000000006044820152606401610264565b5f60065460ff16600381111561043f5761043f6108d3565b036104ac575f546001600160a01b031633146104a75760405162461bcd60e51b815260206004820152602160248201527f4f6e6c79206d616b65722063616e2063616e63656c2070656e64696e672062656044820152601d60fa1b6064820152608401610264565b610509565b6005544210156105095760405162461bcd60e51b815260206004820152602260248201527f43616e206f6e6c792063616e63656c2065787069726564206163746976652062604482015261195d60f21b6064820152608401610264565b6006805460ff191660031790555f80546001600160a01b031681526007602052604090205415610586575f80546001600160a01b03908116825260076020526040808320805490849055835491519093919092169183156108fc0291849190818181858888f19350505050158015610583573d5f5f3e3d5ffd5b50505b6001546001600160a01b03165f90815260076020526040902054156105f757600180546001600160a01b039081165f908152600760205260408082208054908390559354905192169183156108fc0291849190818181858888f193505050501580156105f4573d5f5f3e3d5ffd5b50505b6040517fa9c660d43fdb14d4f7f7226623a556967689f58ee0e7c1a3397257bb909454c9905f90a1565b5f8054600154600254600354600554600654600480548897889788976060978997889788976001600160a01b039687169795871696948516959394909360ff8316926101009004909116908490610677906109c3565b80601f01602080910402602001604051908101604052809291908181526020018280546106a3906109c3565b80156106ee5780601f106106c5576101008083540402835291602001916106ee565b820191905f5260205f20905b8154815290600101906020018083116106d157829003601f168201915b50505050509350975097509750975097509750975097509091929394959697565b6002546001600160a01b031633146107625760405162461bcd60e51b81526020600482015260166024820152754f6e6c79206a756467652063616e207265736f6c766560501b6044820152606401610264565b600160065460ff16600381111561077b5761077b6108d3565b146107bc5760405162461bcd60e51b8152602060048201526011602482015270426574206973206e6f742061637469766560781b6044820152606401610264565b5f546001600160a01b03828116911614806107e457506001546001600160a01b038281169116145b6108305760405162461bcd60e51b815260206004820152601c60248201527f57696e6e6572206d7573742062652061207061727469636970616e74000000006044820152606401610264565b6006805460ff196001600160a01b0384166101008102919091166001600160a81b0319909216919091176002179091556040514791906108fc8315029083905f818181858888f1935050505015801561088b573d5f5f3e3d5ffd5b50816001600160a01b03167f267080663d37ffe29159bb65a5b0fd5ef7a272464e69a52c77c0520592669c0d826040516108c791815260200190565b60405180910390a25050565b634e487b7160e01b5f52602160045260245ffd5b6004811061090357634e487b7160e01b5f52602160045260245ffd5b9052565b6001600160a01b0389811682528881166020808401919091529088166040830152606082018790526101006080830181905286519083018190525f918190880161012085015e5f6101208285010152610120601f19601f8301168401019150508460a083015261097a60c08301856108e7565b6001600160a01b03831660e08301529998505050505050505050565b5f602082840312156109a6575f5ffd5b81356001600160a01b03811681146109bc575f5ffd5b9392505050565b600181811c908216806109d757607f821691505b6020821081036109f557634e487b7160e01b5f52602260045260245ffd5b5091905056fea2646970667358221220a5a3546ba71195c35c007791c0e3c90a74727ed944d0c5cfe2b89b8df8e95a5264736f6c634300081c0033",
  "linkReferences": {},
  "deployedLinkReferences": {},
  "immutableReferences": {},
  "inputSourceName": "project/contracts/bet.sol",
  "buildInfoId": "solc-0_8_28-914e26a000b3d82ab02eff4fde84f9dc5e34bdd9"
}